:020000040800F2
:1000000000000220193E0008593900085F39000835
:10001000653900086B3900087139000800000000DC
:10002000000000000000000000000000C1AA00085D
:10003000773900080000000011AD0008D57F0008E6
:10004000693E0008693E0008693E0008693E0008F4
:10005000693E0008693E0008693E0008693E0008E4
:10006000693E0008693E0008693E0008693E0008D4
:10007000693E0008693E0008693E0008693E0008C4
:10008000693E0008693E0008693E0008693E0008B4
:10009000693E0008693E0008693E0008693E0008A4
:1000A000693E000885390008693E0008693E00087D
:1000B000693E0008693E0008693E0008693E000884
:1000C000693E0008693E0008693E0008693E000874
:1000D000693E0008A1390008693E0008D9390008C6
:1000E000693E0008693E0008693E0008693E000854
:1000F000693E0008693E00083D3A0008693E000874
:10010000693E0008693E0008693E0008693E000833
:10011000693E0008693E0008693E0008693E000823
:10012000693E0008693E0008693E0008693E000813
:10013000693E0008693E0008693E0008693E000803
:10014000693E0008693E0008693E0008693E0008F3
:10015000693E0008693E0008693E0008693E0008E3
:10016000693E0008693E0008693E0008693E0008D3
:10017000693E0008693E0008693E00080000000072
:08018000693E0008693E000819
:1001900010B5054C237833B9044B13B10448AFF3C1
:1001A00000800123237010BD900200200000000099
:1001B000880E010808B5034B1BB103490348AFF390
:1001C000008008BD0000000094020020880E010895
:1001D00001F0FF01102A2BDB10F0070F08D010F8F8
:1001E000013B013A8B422DD010F0070F42B3F6D1FC
:1001F000F0B441EA012141EA014122F007047FF015
:1002000000070023F0E80256083C85EA010586EA6B
:10021000010685FA47F5A3FA87F586FA47F6A5FAA7
:1002200087F68EB9EED1F0BC01F0FF0102F00702B3
:1002300032B110F8013B013A83EA010313B1F8D15E
:100240000020704701387047002D06BF354603383F
:10025000073815F0010F07D1013015F4807F02BF78
:10026000013015F4C03F0130F0BC0138704700BFC9
:10027000034613F8012B002AFBD1181A01387047E6
:1002800081F0004102E000BF83F0004330B54FEA47
:1002900041044FEA430594EA050F08BF90EA020FB4
:1002A0001FBF54EA000C55EA020C7FEA645C7FEA47
:1002B000655C00F0E2804FEA5454D4EB5555B8BF6A
:1002C0006D420CDD2C4480EA020281EA030382EADB
:1002D000000083EA010180EA020281EA0303362D6D
:1002E00088BF30BD11F0004F4FEA01314FF4801C40
:1002F0004CEA113102D0404261EB410113F0004F52
:100300004FEA03334CEA133302D0524263EB430308
:1003100094EA050F00F0A780A4F10104D5F1200EA6
:100320000DDB02FA0EFC22FA05F2801841F1000101
:1003300003FA0EF2801843FA05F359410EE0A5F1D5
:1003400020050EF1200E012A03FA0EFC28BF4CF006
:10035000020C43FA05F3C01851EBE37101F00045BC
:1003600007D54FF0000EDCF1000C7EEB00006EEBC9
:100370000101B1F5801F1BD3B1F5001F0CD3490853
:100380005FEA30004FEA3C0C04F101044FEA4452AA
:1003900012F5800F80F09A80BCF1004F08BF5FEA31
:1003A000500C50F1000041EB045141EA050130BD11
:1003B0005FEA4C0C404141EB0101013C28BFB1F523
:1003C000801FE9D291F0000F04BF01460020B1FA6E
:1003D00081F308BF2033A3F10B03B3F120020CDA41
:1003E0000C3208DD02F1140CC2F10C0201FA0CF01F
:1003F00021FA02F10CE002F11402D8BFC2F1200C84
:1004000001FA02F120FA0CFCDCBF41EA0C01904039
:10041000E41AA2BF01EB0451294330BD6FEA040482
:100420001F3C1CDA0C340EDC04F11404C4F120026D
:1004300020FA04F001FA02F340EA030021FA04F37F
:1004400045EA030130BDC4F10C04C4F1200220FAD6
:1004500002F001FA04F340EA0300294630BD21FA14
:1004600004F0294630BD94F0000F83F4801306BFDA
:1004700081F480110134013D4EE77FEA645C18BFCE
:100480007FEA655C29D094EA050F08BF90EA020F65
:1004900005D054EA000C04BF1946104630BD91EA5D
:1004A000030F1EBF0021002030BD5FEA545C05D160
:1004B0004000494128BF41F0004130BD14F580049F
:1004C0003CBF01F5801130BD01F0004545F0FE4113
:1004D00041F470014FF0000030BD7FEA645C1ABF48
:1004E000194610467FEA655C1CBF0B46024650EA7F
:1004F000013406BF52EA033591EA030F41F40021AB
:1005000030BD00BF90F0000F04BF0021704730B530
:100510004FF4806404F132044FF000054FF0000105
:1005200050E700BF90F0000F04BF0021704730B5C6
:100530004FF4806404F1320410F0004548BF40429B
:100540004FF000013EE700BF42004FEAE2014FEAF0
:1005500031014FEA02701FBF12F07F4393F07F4FCB
:1005600081F06051704732F07F4208BF704793F0CE
:100570007F4F04BF41F40021704730B54FF46074E1
:1005800001F0004521F000411CE700BF50EA0102E4
:1005900008BF704730B54FF000050AE050EA01028D
:1005A00008BF704730B511F0004502D5404261EBFD
:1005B00041014FF4806404F132045FEA915C3FF43E
:1005C000D8AE4FF003025FEADC0C18BF03325FEADB
:1005D000DC0C18BF033202EBDC02C2F1200300FA8C
:1005E00003FC20FA02F001FA03FE40EA0E0021FAB1
:1005F00002F11444BDE600BF70B54FF0FF0C4CF49F
:10060000E06C1CEA11541DBF1CEA135594EA0C0F50
:1006100095EA0C0F00F0DEF82C4481EA030621EA8B
:100620004C5123EA4C5350EA013518BF52EA0335C6
:1006300041F4801143F4801338D0A0FB02CE4FF078
:100640000005E1FB02E506F00042E0FB03E54FF0A8
:100650000006E1FB03569CF0000F18BF4EF0010EA0
:10066000A4F1FF04B6F5007F64F5407404D25FEA9C
:100670004E0E6D4146EB060642EAC62141EA55514F
:100680004FEAC52040EA5E504FEACE2EB4F1FD0C91
:1006900088BFBCF5E06F1ED8BEF1004F08BF5FEA0F
:1006A000500E50F1000041EB045170BD06F00046C1
:1006B00046EA010140EA020081EA0301B4EB5C046E
:1006C000C2BFD4EB0C0541EA045170BD41F4801166
:1006D0004FF0000E013C00F3AB8014F1360FDEBF8B
:1006E000002001F0004170BDC4F10004203C35DA67
:1006F0000C341BDC04F11404C4F1200500FA05F3EA
:1007000020FA04F001FA05F240EA020001F000428A
:1007100021F0004110EBD37021FA04F642EB060100
:100720005EEA430E08BF20EAD37070BDC4F10C042A
:10073000C4F1200500FA04F320FA05F001FA04F2EE
:1007400040EA020001F0004110EBD37041F10001DA
:100750005EEA430E08BF20EAD37070BDC4F12005E5
:1007600000FA05F24EEA020E20FA04F301FA05F24D
:1007700043EA020321FA04F001F0004121FA04F2F5
:1007800020EA020000EBD3705EEA430E08BF20EAC5
:10079000D37070BD94F0000F0FD101F000464000FF
:1007A00041EB010111F4801F08BF013CF7D041EA81
:1007B000060195F0000F18BF704703F00046520085
:1007C00043EB030313F4801F08BF013DF7D043EA56
:1007D0000603704794EA0C0F0CEA135518BF95EA0C
:1007E0000C0F0CD050EA410618BF52EA4306D1D193
:1007F00081EA030101F000414FF0000070BD50EAB2
:10080000410606BF1046194652EA430619D094EA3B
:100810000C0F02D150EA013613D195EA0C0F05D125
:1008200052EA03361CBF104619460AD181EA030179
:1008300001F0004141F0FE4141F470014FF0000031
:1008400070BD41F0FE4141F4780170BD70B54FF0CC
:10085000FF0C4CF4E06C1CEA11541DBF1CEA13554C
:1008600094EA0C0F95EA0C0F00F0A7F8A4EB05042E
:1008700081EA030E52EA03354FEA013100F0888025
:100880004FEA03334FF0805545EA131343EA1263EE
:100890004FEA022245EA111545EA10654FEA0026A3
:1008A0000EF000419D4208BF964244F1FD0404F55C
:1008B000407402D25B084FEA3202B61A65EB0305B8
:1008C0005B084FEA32024FF480104FF4002CB6EB75
:1008D000020E75EB030E22BFB61A754640EA0C00F5
:1008E0005B084FEA3202B6EB020E75EB030E22BF35
:1008F000B61A754640EA5C005B084FEA3202B6EB76
:10090000020E75EB030E22BFB61A754640EA9C0034
:100910005B084FEA3202B6EB020E75EB030E22BF04
:10092000B61A754640EADC0055EA060E18D04FEAC2
:10093000051545EA16754FEA06164FEAC30343EA62
:1009400052734FEAC2025FEA1C1CC0D111F4801F2F
:100950000BD141EA00014FF000004FF0004CB6E728
:1009600011F4801F04BF01430020B4F1FD0C88BFC7
:10097000BCF5E06F3FF6AFAEB5EB030C04BFB6EBD2
:10098000020C5FEA500C50F1000041EB045170BDC5
:100990000EF0004E4EEA113114EB5C04C2BFD4EBF2
:1009A0000C0541EA045170BD41F480114FF0000E76
:1009B000013C90E645EA060E8DE60CEA135594EAF2
:1009C0000C0F08BF95EA0C0F3FF43BAF94EA0C0FF5
:1009D0000AD150EA01347FF434AF95EA0C0F7FF46A
:1009E00025AF104619462CE795EA0C0F06D152EABE
:1009F00003353FF4FDAE1046194622E750EA4106A2
:100A000018BF52EA43067FF4C5AE50EA41047FF4B2
:100A10000DAF52EA43057FF4EBAE12E74FF0FF3C17
:100A200006E000BF4FF0010C02E000BF4FF0010CE8
:100A30004DF804CD4FEA410C7FEA6C5C4FEA430C61
:100A400018BF7FEA6C5C1BD001B050EA410C0CBFB0
:100A500052EA430C91EA030F02BF90EA020F002012
:100A6000704710F1000F91EA030F58BF994208BF79
:100A700090422CBFD8176FEAE37040F00100704736
:100A80004FEA410C7FEA6C5C02D150EA013C07D18D
:100A90004FEA430C7FEA6C5CD6D152EA033CD3D0D8
:100AA0005DF8040B704700BF8446104662468C46D2
:100AB0001946634600E000BF01B5FFF7B7FF002805
:100AC00048BF10F1000F01BD4DF808EDFFF7F4FF2E
:100AD0000CBF012000205DF808FB00BF4DF808EDB9
:100AE000FFF7EAFF34BF012000205DF808FB00BFDC
:100AF0004DF808EDFFF7E0FF94BF012000205DF8FE
:100B000008FB00BF4DF808EDFFF7CEFF94BF0120B2
:100B100000205DF808FB00BF4DF808EDFFF7C4FFAB
:100B200034BF012000205DF808FB00BF4FEA410CF4
:100B30007FEA6C5C02D150EA013C0AD14FEA430CD7
:100B40007FEA6C5C02D152EA033C02D14FF0000014
:100B500070474FF0010070474FEA410212F5001252
:100B600015D211D56FF47873B3EB625212D94FEAF4
:100B7000C12343F0004343EA505311F0004F23FADE
:100B800002F018BF404270474FF00000704750EA33
:100B9000013005D111F0004008BF6FF000407047F0
:100BA0004FF00000704700BF4A0011D212F500124A
:100BB00011D20DD56FF47873B3EB62520ED44FEAB5
:100BC000C12343F0004343EA505323FA02F0704735
:100BD0004FF00000704750EA013002D14FF0FF3073
:100BE00070474FF0000070474FEA4102B2F1E04316
:100BF00024BFB3F5001CDCF1FE5C0DD901F0004C04
:100C00004FEAC0024CEA5070B2F1004F40EB830053
:100C100008BF20F00100704711F0804F21D113F17F
:100C20003872BCBF01F00040704741F480114FEAB8
:100C30005252C2F11802C2F1200C10FA0CF320FA41
:100C400002F018BF40F001004FEAC1234FEAD3235E
:100C500003FA0CFC40EA0C0023FA02F34FEA4303C8
:100C6000CCE77FEA625307D150EA01331EBF4FF051
:100C7000FE4040F44000704701F0004040F0FE406C
:100C800040F40000704700BF53B94AB9002908BFBB
:100C900000281CBF4FF0FF314FF0FF3000F0A6B925
:100CA000ADF1080C6DE904CE00F03CF8DDF804E08D
:100CB000DDE9022304B0704738B500220023044662
:100CC0000D46FFF70BFF28B920462946BDE83840FE
:100CD00000F00AB8204605F1004100F005F8404256
:100CE00061EB410138BD00BFD0B50C4B0022064678
:100CF0000F46FFF781FCFFF757FF0446FFF702FCA2
:100D0000074B0022FFF778FC02460B463046394677
:100D1000FFF7BAFAFFF748FF2146D0BD0000F03DCB
:100D20000000F0412DE9F047089E0D4604460F46AD
:100D3000002B4AD18A42944665D9B2FA82F343B174
:100D400002FA03FCC3F120029F4020FA02F217438B
:100D50009C404FEA1C4E1FFA8CF5B7FBFEF1220CAB
:100D60000EFB117742EA074201FB05F090420AD9D7
:100D70001CEB020201F1FF3780F01C81904240F22F
:100D8000198102396244121AA4B2B2FBFEF00EFBC2
:100D9000102244EA024400FB05F5A5420AD91CEBE7
:100DA000040400F1FF3280F00781A54240F2048183
:100DB0006444023840EA0140641B00211EB1DC405B
:100DC0000023C6E90043BDE8F0878B4208D9002E16
:100DD00000F0ED800021C6E900050846BDE8F08777
:100DE000B3FA83F1002949D1AB4202D3824200F227
:100DF000F880841A65EB030201201746002EE2D02A
:100E0000C6E90047DFE702B9FFDEB2FA82F3002B42
:100E100040F090808A1A4FEA1C471FFA8CFE01218D
:100E2000B2FBF7F507FB1520220C42EA00420EFB4D
:100E300005F0904208D91CEB020205F1FF3802D2FE
:100E4000904200F2CB804546121AA4B2B2FBF7F0F2
:100E500007FB102244EA02440EFB00FEA64508D917
:100E60001CEB040400F1FF3202D2A64500F2BB8065
:100E70001046A4EB0E0440EA05409FE7C1F12007AD
:100E80008B4022FA07FC4CEA030C05FA01F420FA25
:100E900007F3FD404FEA1C492343B5FBF9F81FFA5D
:100EA0008CFE09FB18551C0C44EA054408FB0EF5A2
:100EB000A54202FA01F200FA01F00BD91CEB04047E
:100EC00008F1FF3A80F08880A54240F28580A8F1C1
:100ED00002086444641B9DB2B4FBF9F309FB13449C
:100EE00045EA044403FB0EFEA64508D91CEB0404A6
:100EF00003F1FF356CD2A6456AD9023B644443EA4C
:100F00000843A3FB0295A4EB0E04AC42C846AE46D0
:100F100056D353D056B1B0EB080264EB0E0404FA7A
:100F200007F7CA40CC401743C6E9007418460021B1
:100F3000BDE8F087C3F1200102FA03FC20FA01F2B8
:100F400025FA01F19D402A434FEA1C471FFA8CFE07
:100F5000B1FBF7F007FB1015110C41EA054100FB4E
:100F60000EF58D4204FA03F408D91CEB010100F1DF
:100F7000FF382FD28D422DD902386144491B92B2DD
:100F8000B1FBF7F507FB151142EA014205FB0EF133
:100F9000914208D91CEB020205F1FF3816D29142AA
:100FA00014D9023D6244521A45EA004138E73146FD
:100FB000304608E73946E6E61046FBE64845A9D242
:100FC000B9EB020865EB0C0E013BA3E74546EAE7E7
:100FD0002B4694E74046D1E7D0467BE7023D62448A
:100FE00032E708460AE76444023842E7704700BF28
:100FF00080B582B000AF78607B681B7F012B40F02A
:101000008380454B1B78002B1AD10021786805F0AE
:10101000E7F90346414A13603F4B01221A707B688F
:101020001B681A6A7B681B6822F00A021A627B68D6
:101030001B681A6A7B681B6842F002021A6263E04E
:10104000354B1B78012B5FD10021786805F0C8F97A
:101050000346334A13607B681B6800225A62304B98
:101060001A682E4B1B689A4207D92D4B1A682B4BD6
:101070001B68D31A2B4A13600FE0284B1A68284BC1
:101080001B689A4209D9264B1A68244B1B68D31A4D
:1010900003F57F43FF33234A1360224B1B68184636
:1010A000FFF730FA1AA3D3E90023FFF7A5FA0246A7
:1010B0000B46104619464FF000024FF08043FFF7F1
:1010C000C5FB02460B4610461946FFF76DFD034669
:1010D000DAB2154B1A70104B00221A707B681B682D
:1010E0001A6A7B681B6822F00A021A627B681A6817
:1010F0007B681B68126A1A620C4B1B68DA680B4B20
:101100001B6822F00202DA6000BF0837BD4680BDCE
:101110009CC420B07268A13FB8020020AC0200203D
:10112000B0020020B4020020B902002034040020E4
:1011300080B400AF00BFBD465DF8047B704780B44B
:1011400000AF00231846BD465DF8047B70470000E1
:1011500080B500AF02F08AFE00F0B4F800F0FAFBB0
:1011600000F04EF900F0A4F900F0F6F900F048FAAA
:1011700000F03AFB00F00EF900F0C2FA00F096FB26
:1011800000F0BEFB364B1B686422DA63344B1B68ED
:1011900064221A64334B1B6864225A630821304866
:1011A00004F08AFA0C212E4804F086FA00212D481A
:1011B00004F082FA04212C4804F06EFD04212B482F
:1011C00004F06AFD04212A4804F066FD0021294844
:1011D00004F094FB284B1B68DA68274B1B6842F02D
:1011E0002002DA60254B1B68DA68244B1B6842F04A
:1011F0002002DA6006F008FF214A0121142006F0DF
:10120000FAFF03461F4A13601F4A00211F4806F0D9
:1012100045FF03461E4A13601E4A00211E4806F081
:101220003DFF03461D4A13601D4A00211D4806F07C
:1012300035FF03461C4A13601C4A00211C4806F077
:101240002DFF03461B4A13601B4A00211B4806F072
:1012500025FF03461A4A136006F0FAFEFEE700BFB8
:10126000EC0300207C040020140300205C03002019
:10127000A403002034040020C40400200C05002036
:10128000E00F0108680500202C0F0108051E00086A
:1012900054050020500F0108C524000858050020FF
:1012A000740F0108D12700085C050020980F010881
:1012B0004128000860050020BC0F0108012B000830
:1012C0006405002080B594B000AF07F12003302200
:1012D000002118460AF065FF07F10C0300221A608E
:1012E0005A609A60DA601A610023BB60274B1B6C5E
:1012F000264A43F080531364244B1B6C03F0805345
:10130000BB60BB6800237B60214B1B68204A43F411
:10131000804313601E4B1B6803F480437B607B6833
:1013200002233B620123FB6210233B630223BB6366
:101330000023FB6308233B6440237B640223BB64DC
:101340000423FB6407F12003184603F0FBF803466F
:10135000002B01D001F0EEFB0F23FB6002233B6169
:10136000A0237B610023BB610023FB6107F10C0319
:101370000021184603F05EFB0346002B01D001F06C
:10138000D9FB00BF5037BD4680BD00BF00380240CA
:101390000070004080B500AF174B184A1A60164B1A
:1013A0004FF482725A60144B00229A60124B002252
:1013B000DA60114B02221A610F4B01225A610E4B67
:1013C0004FF400729A610C4B2822DA610A4B80229A
:1013D0001A62094B00225A62074B00229A62064B9E
:1013E0000A22DA62044803F037FD0346002B01D0DD
:1013F00001F0A0FB00BF80BDBC020020003C00400B
:1014000080B58CB000AF07F10C03242200211846F0
:101410000AF0C7FE3B1D00221A605A60224B234A85
:101420001A60214B00225A601F4B00229A601E4B0B
:101430004FF6FF72DA601C4B00221A611A4B002231
:101440005A61194B00229A610323FB6000233B6120
:1014500001237B610023BB610023FB6100233B620E
:1014600001237B620023BB620023FB6207F10C03B4
:1014700019460D4804F06AFB0346002B01D001F029
:1014800059FB00237B600023BB603B1D19460648C7
:1014900005F04EFC0346002B01D001F04BFB00BFD2
:1014A0003037BD4680BD00BF14030020000001405E
:1014B00080B58CB000AF07F10C0324220021184640
:1014C0000AF06FFE3B1D00221A605A60204B214A31
:1014D0001A601F4B00225A601D4B00229A601C4B61
:1014E0004FF6FF72DA601A4B00221A61184B002285
:1014F0009A610323FB6000233B6101237B6100238E
:10150000BB610023FB6100233B6201237B6200235C
:10151000BB620023FB6207F10C0319460C4804F080
:1015200015FB0346002B01D001F004FB00237B6078
:101530000023BB603B1D1946054805F0F9FB034637
:10154000002B01D001F0F6FA00BF3037BD4680BD58
:101550005C0300200004004080B58CB000AF07F1B0
:101560000C032422002118460AF01BFE3B1D00221A
:101570001A605A60204B214A1A601F4B00225A60A1
:101580001D4B00229A601C4B4FF6FF72DA601A4B1B
:1015900000221A61184B00229A610323FB6000238A
:1015A0003B6101237B610023BB610023FB610023BE
:1015B0003B6201237B620023BB620023FB6207F1D5
:1015C0000C0319460C4804F0C1FA0346002B01D065
:1015D00001F0B0FA00237B600023BB603B1D19467D
:1015E000054805F0A5FB0346002B01D001F0A2FA47
:1015F00000BF3037BD4680BDA40300200008004076
:1016000080B58EB000AF07F1280300221A605A603F
:101610009A60DA6007F1200300221A605A603B1DCD
:1016200000221A605A609A60DA601A615A619A61FF
:10163000314B324A1A60304B07225A602E4B00223F
:101640009A602D4B6322DA602B4B00221A612A4BE1
:1016500000229A61284803F015FF0346002B01D0B1
:1016600001F068FA4FF48053BB6207F12803194672
:10167000214804F0EDFD0346002B01D001F05AFA99
:101680001D4803F0BFFF0346002B01D001F052FAC2
:1016900000233B6200237B6207F1200319461648B2
:1016A00005F046FB0346002B01D001F043FA60230E
:1016B0007B600023BB600023FB6000237B613B1D3C
:1016C000082219460C4804F001FD0346002B01D006
:1016D00001F030FA3B1D0C221946074804F0F6FCD5
:1016E0000346002B01D001F025FA034801F0D0FF9A
:1016F00000BF3837BD4680BDEC030020000C004021
:1017000080B58AB000AF07F1180300221A605A6052
:101710009A60DA6007F1100300221A605A603B46B3
:1017200000221A605A609A60DA602D4B2D4A1A60C6
:101730002B4B07225A602A4B00229A60284B40F616
:10174000FE72DA60264B00221A61254B00225A6194
:10175000234B00229A61224803F094FE0346002B9B
:1017600001D001F0E7F94FF48053BB6107F1180392
:1017700019461B4804F06CFD0346002B01D001F014
:10178000D9F9174804F060F80346002B01D001F0A6
:10179000D1F900233B6100237B6107F11003194657
:1017A0000F4805F0C5FA0346002B01D001F0C2F93D
:1017B00000233B6001237B600023BB600023FB60B0
:1017C0003B4600221946064804F0E4FB0346002B82
:1017D00001D001F0AFF900BF2837BD4680BD00BF82
:1017E000340400200004014080B58CB000AF07F144
:1017F000200300221A605A609A60DA603B1D0022C2
:101800001A605A609A60DA601A615A619A61254BCF
:10181000254A1A60234B07225A60224B00229A6005
:10182000204B6322DA601F4B00221A611D4B0022FD
:101830009A611C4803F026FE0346002B01D001F0FC
:1018400079F94FF480533B6207F12003194615489C
:1018500004F0FEFC0346002B01D001F06BF91148A7
:1018600003F0D0FE0346002B01D001F063F96023A2
:101870007B600023BB600023FB6000237B613B1D7A
:1018800000221946074804F021FC0346002B01D032
:1018900001F050F9034801F0FBFE00BF3037BD46B0
:1018A00080BD00BF7C0400200040014080B500AF37
:1018B000114B124A1A60104B4FF416525A600E4BDD
:1018C00000229A600C4B0022DA600B4B00221A6156
:1018D000094B04225A61084B00229A61064B0022F0
:1018E000DA61054805F0B4FA0346002B01D001F097
:1018F00021F900BF80BD00BFC404002000100140DA
:1019000080B500AF114B124A1A60104B4FF41652BB
:101910005A600E4B00229A600C4B0022DA600B4B8F
:1019200000221A61094B0C225A61084B00229A616D
:10193000064B0022DA61054805F08AFA0346002BBF
:1019400001D001F0F7F800BF80BD00BF0C050020FA
:101950000048004080B58CB000AF07F11C030022A6
:101960001A605A609A60DA601A610023BB61494BC1
:101970001B6B484A43F010031363464B1B6B03F089
:101980001003BB61BB6900237B61424B1B6B414A67
:1019900043F0800313633F4B1B6B03F080037B61B9
:1019A0007B6900233B613B4B1B6B3A4A43F00103CD
:1019B0001363384B1B6B03F001033B613B6900234E
:1019C000FB60344B1B6B334A43F002031363314B10
:1019D0001B6B03F00203FB60FB680023BB602D4B15
:1019E0001B6B2C4A43F0080313632A4B1B6B03F059
:1019F0000803BB60BB6800237B60264B1B6B254A3A
:101A000043F004031363234B1B6B03F004037B605D
:101A10007B6800221021204802F07AFD00224FF45A
:101A200060411E4802F074FD00224FF480711C4892
:101A300002F06EFD1023FB6101233B6200237B62F9
:101A40000023BB6207F11C031946134802F0C4FBD4
:101A50004FF46043FB6101233B6200237B62002360
:101A6000BB6207F11C0319460C4802F0B5FB4FF4AA
:101A70008073FB6101233B6200237B620023BB6216
:101A800007F11C031946064802F0A6FB00BF3037D9
:101A9000BD4680BD003802400000024000100240F8
:101AA0000008024080B586B000AF03460A46FB80BE
:101AB0001346BB80B7F90620B7F9043007F10800D8
:101AC00008490AF00BFB78617B699AB207F10801BB
:101AD0004FF0FF33044805F00BFA00BF1837BD463E
:101AE00080BD00BFE40E01080C05002000000000CE
:101AF00080B586B000AF034687ED020B87ED001B73
:101B0000FB75294B1B78012B0BD14FF00002274BA3
:101B1000D7E90201FEF79AFE02460B46C7E9022307
:101B20000EE0214B1B78002B0AD117A3D3E9002329
:101B3000D7E90201FEF78AFE02460B46C7E90223F7
:101B40009FED132B97ED001B97ED020B01F038F87A
:101B5000FB7D7F2B0AD0DF2B11D19FED0F2B9FED4B
:101B60000C1B9FED0B0B01F02BF808E09FED0C2BED
:101B70009FED071B9FED060B01F022F800BF00BF91
:101B80001837BD4680BD00BF0000000000C0724095
:101B90000000000000000000333333333333D3BF81
:101BA000333333333333D33F0000002000407F40D2
:101BB00080B483B000AF0346FB71FB79F72B02D0F2
:101BC000FB2B04D007E0074B00221A7003E0054B03
:101BD00001221A7000BF00BF0C37BD465DF8047BC0
:101BE000704700BF0000002080B586B000AF87EDD1
:101BF000020B87ED001BD7E90223D7E90001FEF7AE
:101C000025FE02460B4643EC172BB0EE470AF0EEDA
:101C1000670A0DF001FF87ED040B3BA3D3E9002316
:101C2000D7E90401FEF7E8FC02460B4610461946C8
:101C30004FF00002304BFEF727FB02460B462F49C0
:101C4000C1E900234FF000024FF00003D7E9020181
:101C5000FEF744FF0346002B0CD0284BD3E90001CC
:101C60004FF00002264BFEF711FB02460B462349BC
:101C7000C1E900234FF000024FF00003D7E9020151
:101C8000FEF740FF0346002B17D04FF000024FF045
:101C90000003D7E90001FEF721FF0346002B0CD01B
:101CA000164BD3E900014FF00002164BFEF7EEFA97
:101CB00002460B461149C1E90023104BD3E900014C
:101CC0004FF000024FF00003FEF708FF0346002B21
:101CD00000D10CE0094BD3E900014FF00002094BA1
:101CE000FEF7D4FA02460B460449C1E9002300BFBF
:101CF0001837BD4680BD00BF00003E40B005002043
:101D0000008066400080764018B1531ADCA54C4034
:101D10002DE9B04F84B000AF78607B6807331B7843
:101D2000FB817B6808331B78BB81FB89803B9BB2BE
:101D3000FB81BB89C3F17F039BB2BB81B7F90E3036
:101D40001846FEF7EFFB02460B46904623F000498B
:101D5000B7F90C301846FEF7E5FB02460B469246F3
:101D600023F0004B52465B4640464946FEF7CAFE0A
:101D70000346002B0AD0B7F90E301846FEF7D2FB07
:101D800002460B46144623F0004509E0B7F90C3033
:101D90001846FEF7C7FB02460B46144623F00045E3
:101DA000164BC3E90045154BD3E900014FF0000283
:101DB000134BFEF793FE0346002B06D00F494FF05E
:101DC00000024FF00003C1E90023B7F90E301846B6
:101DD000FEF7A8FB04460D46B7F90C301846FEF78F
:101DE000A1FB02460B4643EC112B45EC104BFFF7D1
:101DF000FBFE00BF1037BD46BDE8B08FA805002030
:101E00000000494080B588B002AF78600023FB60D5
:101E100007F1100300221A601A7144F201233B817A
:101E200000221021244802F073FB07F10C0207F195
:101E300008010A2300930923204803F096F80122A1
:101E400010211D4802F064FB7B7B732B25D11C4BBA
:101E50001B68184607F0C6FB1A4B1B68184607F0AC
:101E6000C1FB07F10C031846FFF752FF3B7C1846F5
:101E7000FFF79EFEFB7B144A92ED007B134A92ED26
:101E8000006BB0EE461AF0EE661AB0EE470AF0EEBE
:101E9000670A1846FFF72CFE09E0094B1B68184635
:101EA00007F048FC074B1B68184607F043FC0A2064
:101EB00006F086F9AAE700BF00000240BC0200203D
:101EC0005C05002060050020A8050020B00500206A
:101ED00080B483B000AF0346FB710B46BB80134652
:101EE0007B800C4AFB791370B7F90420B7F90230F4
:101EF000D31A40F6746202FB03F31A46064B1A60CB
:101F0000064B00221A7000BF0C37BD465DF8047BFB
:101F1000704700BFA9000020C00F0020A7000020CC
:101F200080B483B000AF78607B685B4218460C37A2
:101F3000BD465DF8047B704780B586B000AFF860A1
:101F40000B467A60FB72FB7A5B00FA68134400224E
:101F50001A8000237B610023FB747B6893F90030B7
:101F60002D2B04D10123FB7401237B6121E000238D
:101F7000FB7400237B611CE0FB7A5B00FA6813446E
:101F8000B3F900309BB21A46920013445B009AB238
:101F90007B6979680B4493F900309BB2134499B282
:101FA000FB7A5B00FA6813440AB21A807B6901333A
:101FB0007B61104B1B781A467B699342DCDBFB7C10
:101FC000002B0FD0FB7A5B00FA681344B3F90030A2
:101FD0001846FFF7A5FF0146FB7A5B00FA68134439
:101FE0000AB21A80034B00221A7000BF1837BD4690
:101FF00080BD00BFB805002080B500AF824B1B78C4
:102000001A46824B93F900309A4240F3D7807F4BB7
:1020100093F900301A467E4B9B5C002B16D04FF094
:10202000FF3307227B497C4804F062FF7B4B04228C
:102030001A707B4B01221A70744B93F90030DBB29B
:102040000133DBB25AB2714B1A70DAE06F4B93F97D
:1020500000301A46734B33F91220734BB3F900303A
:102060009A4235D1694B93F900301A466F4B33F9D8
:1020700012206F4BB3F900309A420EDD634B93F997
:1020800000301A46694B33F91230694AB2F9002020
:1020900019460020FFF71CFF5BE05C4B93F9003012
:1020A0001A46624B33F91220614BB3F900309A4261
:1020B0004FDA5F4BB3F90030544A92F900201146D1
:1020C0005A4A32F9112019460120FFF701FF40E07A
:1020D0004E4B93F900301A46544B33F91220544BAF
:1020E000B3F900309A4234D1484B93F900301A4684
:1020F0004C4B33F912204C4BB3F900309A420EDDB1
:10210000424B93F900301A46464B33F91230464A97
:10211000B2F9002019460320FFF7DAFE19E03B4B25
:1021200093F900301A463F4B33F912203E4BB3F976
:1021300000309A420DDA3C4BB3F90030334A92F941
:1021400000201146374A32F9112019460220FFF7C4
:10215000BFFE4FF0FF33062236492F4804F0C8FE79
:102160002A4B93F900301A46304B33F91230274A84
:1021700092F9002011462B4A32F9112011461846D7
:10218000FFF790FC214B93F900301A46274B33F9A7
:102190001220274B1A801D4B93F900301A46214B11
:1021A00033F91220204B1A80184B93F90030DBB220
:1021B0000133DBB25AB2154B1A7022E0124B1B7876
:1021C000012B1ED91C4B1B7883F00103DBB2002BC3
:1021D00009D04FF0FF3307220E490F4804F088FE64
:1021E0000E4B04221A70144B1B78002B09D04FF0B1
:1021F000FF3319221149084804F07AFE074B0222E6
:102200001A7000BF80BD00BFA8000020BE0F0020D4
:10221000980D0020880000200C050020C40F00202D
:10222000930D0020A4090020900D0020BC05002083
:102230008C0D0020A0000020920D0020380000200E
:1022400080B584B000AFB881B9607A603B7B0A2B5F
:102250002CD03B7B202B29D03B7B2D2B0DD1397BE8
:102260002E4B1B781A4649B22D4B99542B4B1B7899
:102270000133DAB2294B1A704BE03B7B0133294A18
:1022800013441B7803F00403002B42D03B7B303B0C
:10229000D9B2224B1B781A4649B2214B99541F4B95
:1022A0001B780133DAB21D4B1A7032E03B7B202BD6
:1022B0000ED11A4B1B78002B0AD0194A0021B8689E
:1022C000FFF73AFEBB68B3F90020174B1A8021E0F4
:1022D0003B7B0A2B1ED1114B1B78002B1AD0104AC6
:1022E00000217868FFF728FE7B68B3F900200F4BC8
:1022F0001A80BB68B3F900207B68B3F90030194637
:102300001046FFF7CFFB32220021054809F049FFB4
:1023100000E000BF00BF1037BD4680BDB8050020FB
:102320008C0F002010100108BC050020A40900201B
:1023300080B582B000AFB880584B1B78002B1BD003
:10234000574B1B781A46574B01219954544B1B7815
:102350000133DAB2524B1A70504B1B78002B14BF6A
:1023600001230023DBB283F00103DBB203F001039E
:10237000DAB24A4B1A708DE03B790A2B2CD03B79AC
:10238000202B29D03B792D2B0DD13979464B1B7849
:102390001A4649B2454B9954434B1B780133DAB284
:1023A000414B1A7075E03B790133414A13441B7865
:1023B00003F00403002B6CD03B79303BD9B23A4B8D
:1023C0001B781A4649B2394B9954374B1B78013365
:1023D000DAB2354B1A705CE03B79202B0BD1324BD3
:1023E0001B78002B07D02E4B1B78304A19463148FA
:1023F000FFF7A2FD4EE03B790A2B4BD12A4B1B780D
:10240000002B47D0264B1B78284A19462A48FFF74D
:1024100093FD234B1B781A46264B33F91220204B91
:102420001B78013B234931F913309A4215D01C4BDC
:102430001B781A46204B33F91220194B1B78013BAD
:102440001D4931F913309A4207D04FF0FF330D2266
:102450001A491B4804F04CFD1CE0114B1B781A462E
:10246000144B33F912300E4A12781146124A32F9DF
:10247000112011461846FFF715FB322200210B48A8
:1024800009F08FFE064B1B780133DAB2044B1A7049
:1024900000E000BF0837BD4680BD00BF930D00209F
:1024A000A8000020980D0020B80500208C0F002007
:1024B00010100108BC050020A40900209000002095
:1024C0000C05002080B586B000AF78604FF0FF3378
:1024D0007B617B4B1B68184605F0BEFF38613B698A
:1024E000002B0AD0764B186807F10C014FF0FF3330
:1024F000002205F053FF786101E000233B737B6904
:10250000002B40F083803B7B01336E4A13441B78E1
:1025100003F00303002B79D03B7B662B09D14FF0EE
:10252000FF3317226849694804F0E2FC684B002237
:102530001A703B7B642B0AD14FF0FF331922654997
:10254000624804F0D5FC624B01221A705EE03B7BCE
:10255000722B28D1604B1B7883F00103DBB2002B78
:1025600006D04FF0FF3319225C49584804F0C0FCF4
:10257000594B1B78002B06D04FF0FF331D225849D2
:10258000524804F0B5FC544B1B78002B14BF0123B8
:102590000023DBB283F00103DBB203F00103DAB204
:1025A0004D4B1A7032E03B7B672B0AD14FF0FF3363
:1025B00007224C49454804F09BFC454B03221A7006
:1025C00024E03B7B732B0DD14FF0FF3309224649AA
:1025D0003E4804F08DFC454B01221A703C4B05220D
:1025E0001A7013E03B7B702B10D14FF0FF330722A2
:1025F0003F49364804F07CFC354B1B78032B02D155
:10260000334B04221A703B4B01221A70304B1B785B
:10261000052B50D801A252F823F000BF3526000840
:10262000412600084926000857260008B72600085A
:102630006B260008304A3149F868FFF701FE3AE09E
:10264000F868FFF775FE36E02D4B00221A70204B1C
:1026500003221A702FE0274B00221A70294B1B7897
:10266000002B27D0FFF7C8FC24E04FF47A7200213A
:10267000254809F096FD4FF47A720021234809F0AD
:1026800090FD4FF4FA720021214809F08AFD1B4B9E
:1026900000221A80184B00221A80164B00221A7052
:1026A0001C4B01221A70164B00221A700A4B002292
:1026B0001A7000E000BF012005F082FD09E700BFAD
:1026C0006805002010100108040000200C050020FF
:1026D000C40F00201C000020920D002038000020B4
:1026E00054000020740000207C000020940D002085
:1026F00088000020930D0020900D00208C0D0020FC
:10270000BE0F0020A7000020BC050020A409002067
:10271000980D0020A800002080B500AF264B1B7844
:10272000002B0BD09FED1E2B9FED1D1B9FED1C0B57
:1027300000F046FA214B04221A702DE0204B1B7842
:10274000002B08D09FED162B9FED151B9FED140B52
:1027500000F036FA20E01B4B1B78012B1BD0194BE5
:102760001B78002B17D0184B1A68184B1B689A421D
:102770000DD89FED0B2B9FED0C1B9FED0D0B00F06B
:102780001FFA114B1B680A330F4A136004E00B4B0E
:1027900004221A7000E000BF80BD00BFAFF30080CC
:1027A00000000000000000000000000000004E409B
:1027B0009A9999999999C93F940D0020A9000020F0
:1027C000930D0020AA000020C80F0020C00F002099
:1027D00080B582B000AF7860154B1B78042B23D8EE
:1027E00001A252F823F000BFFD27000803280008CB
:1027F0000F2800080928000815280008FFF78CFF9B
:1028000012E0FFF789FF0FE0FFF786FF0CE0FFF70C
:1028100083FF09E0074B01221A70074B00221A6060
:10282000064B00221A7000BF0A2005F0C9FCD3E74E
:10283000A9000020A7000020C80F0020940D002050
:102840002DE9B04F82B000AF7860A54B1B78042B08
:102850001ED801A252F823F06D2800087528000840
:10286000892800087F280008912800089D4B002235
:102870001A800DE09B4B4FF64D721A8008E0994B81
:102880004FF6A6721A8003E0964B5A221A8000BFB8
:10289000934B1B78012B32D1934BB3F90430002BAF
:1028A00015DB914BB3F90430C3F1B3031846FDF7C0
:1028B00039FE02460B46144623F0004520462946C1
:1028C000FEF74AF903461AB2884B1A802FE0864B6E
:1028D000B3F904301A466FF0B2039B1A1846FDF79D
:1028E00021FE02460B46904623F0004940464946E9
:1028F000FEF732F903461AB27C4B1A8017E0794B87
:10290000B3F900301A46784BB3F90430D31A18469D
:10291000FDF708FE02460B46924623F0004B504658
:102920005946FEF719F903461AB2704B1A80704BDC
:102930001B78002B03D16F4B1B78002B03D06E4B01
:1029400003221A705BE0664B1B78012B0ED1664B9D
:10295000B3F90430B12B05DC634BB3F9043013F148
:10296000B10F03DA644B02221A7048E05C4B1B780B
:10297000012B17D05C4BB3F904301A46594BB3F90D
:102980000030013B9A420DDB574BB3F904301A4635
:10299000544BB3F9003001339A4203DC564B022208
:1029A0001A702CE0504BB3F904301A464D4BB3F972
:1029B000003001339A420CDD4C4BB3F90030B42B9C
:1029C00003DC4D4B01221A7019E04B4B00221A70A8
:1029D00015E0454BB3F904301A46424BB3F90030C9
:1029E000013B9A420BDA414BB3F90030B42B03DCC4
:1029F000414B00221A7002E03F4B01221A703E4BFD
:102A00001B78032B08D19FED2C2B9FED2B1B9FEDEB
:102A10002A0B00F0D5F848E0374B1B78022B05D184
:102A2000364B1B68184606F085FE3EE0324B1B789D
:102A3000012B1BD1314B1B68184606F0D3FD2B4BE5
:102A4000B3F90030272B08DD9FED1D2B9FED1A1BDE
:102A50009FED190B00F0B4F827E09FED1B2B9FEDC5
:102A6000161B9FED150B00F0ABF81EE0224B1B78F8
:102A7000002B1AD1214B1B68184606F0B3FD1B4BE7
:102A8000B3F90030272B08DD9FED112B9FED0A1BBA
:102A90009FED090B00F094F807E09FED0F2B9FEDE1
:102AA000061B9FED050B00F08BF8322005F088FB2C
:102AB000CBE600BFAFF30080000000000000000084
:102AC0009A9999999999C9BF9A999999999999BFF8
:102AD0009A9999999999C93F9A9999999999993FE8
:102AE000A9000020CC0F002074100020CE0F002081
:102AF000930D0020A7000020AA0000205C05002004
:102B000080B582B000AF7860642005F059FBFBE728
:102B100080B582B000AF78607B681B68044A93423E
:102B200001D101F0C5F900BF0837BD4680BD00BF27
:102B30000044014080B400AF72B600BFFEE7000061
:102B400080B584B000AF87ED000BD7E90001FEF738
:102B500003F80346002B09D117494FF00002174B29
:102B6000C1E90023144BD3E9002313E00EA3D3E9FA
:102B70000023D7E90001FDF73FFD02460B460CA1FB
:102B8000D1E90001FDF780FB02460B46C7E90223AD
:102B9000D7E9022343EC172BB0EE470AF0EE670AA1
:102BA0001037BD4680BD00BF333333333333E33F8B
:102BB0009A99999999895840B0000020000059408D
:102BC0002DE9B04F92B000AF87ED060B87ED041BE7
:102BD00087ED022B96A3D3E90023D7E90401FDF783
:102BE0000BFD02460B46104619464FF00002944B6F
:102BF000FDF72CFE02460B4643EC172BB0EE470ABE
:102C0000F0EE670A0DF0A8F851EC100B86A3D3E99B
:102C10000023FDF7F1FC02460B46C7E9002384A31D
:102C2000D3E90023D7E90401FDF7E6FC02460B4691
:102C3000104619464FF00002814BFDF707FE024691
:102C40000B4643EC172BB0EE470AF0EE670A0DF087
:102C5000E3F851EC100B4FF000027A4BFDF7CCFC7F
:102C600002460B46D7E90001FDF70EFB02460B4674
:102C700010461946D7E90623FDF7BEFC02460B466F
:102C800010461946D7E90223FDF700FB02460B4622
:102C90006D49C1E9002366A3D3E90023D7E9040104
:102CA000FDF7AAFC02460B46104619464FF00002FB
:102CB000634BFDF7CBFD02460B4643EC172BB0EE02
:102CC000470AF0EE670A0DF047F851EC100B5AA3D3
:102CD000D3E90023FDF790FC02460B46C7E9002329
:102CE00053A3D3E90023D7E90401FDF785FC02468D
:102CF0000B46104619464FF00002514BFDF7A6FD5A
:102D000002460B4643EC172BB0EE470AF0EE670A7B
:102D10000DF082F851EC100B4FF00002494BFDF71B
:102D20006BFC02460B46D7E90001FDF7ADFA0246FF
:102D30000B4610461946D7E90623FDF75DFC02460F
:102D40000B4610461946D7E90223FDF79FFA0246C3
:102D50000B463E49C1E9002335A3D3E90023D7E957
:102D60000401FDF749FC02460B46104619464FF098
:102D70000002334BFDF76AFD02460B4643EC172B6E
:102D8000B0EE470AF0EE670A0DF046F851EC100B72
:102D9000D7E90623FDF730FC02460B4610461946DC
:102DA000D7E90223FDF772FA02460B462849C1E92A
:102DB0000023274BD3E900231146396423F0004355
:102DC0007B64214BD3E900231146B96323F0004310
:102DD000FB631E4BD3E900231146396323F0004304
:102DE0007B63D7E91023C7E90A23D7E90A23D7E988
:102DF0000E01FDF791FE0346002B02D0D7E90E230A
:102E000001E0D7E90A23C7E90A23D7E90A23D7E96A
:102E10000C01FDF781FE0346002B1BD0D7E90C23E4
:102E20001AE000BFAFF30080D7A3703D0AD7EBBF15
:102E300050455254FB210940D7A3703D0AD7EB3FC0
:102E4000008066400000E03FD80F0020E00F002027
:102E5000D00F0020D7E90A23C7E90A234FF0000268
:102E60009E4BD7E90A01FDF757FE0346002B2ED0F3
:102E7000D7E90A234FF000009849FDF7E7FC024626
:102E80000B46C7E90823964BD3E90001D7E908238D
:102E9000FDF7B2FB02460B469149C1E90023914B75
:102EA000D3E90001D7E90823FDF7A6FB02460B464C
:102EB0008C49C1E900238C4BD3E90001D7E90823F1
:102EC000FDF79AFB02460B468749C1E90023844B74
:102ED000D3E900014FF000024FF00003FDF7FEFDC3
:102EE0000346002B0DD00021012000F003F97C4B9C
:102EF000D3E90023924623F0004B794BC3E900ABA2
:102F00000FE0774BD3E900014FF000024FF00003D0
:102F1000FDF702FE0346002B03D00121012000F043
:102F2000E9F8704BD3E900014FF000024FF00003C5
:102F3000FDF7D4FD0346002B0DD00021022000F048
:102F4000D9F8684BD3E90023904623F00049654B3C
:102F5000C3E900890FE0634BD3E900014FF00002A1
:102F60004FF00003FDF7D8FD0346002B03D00121ED
:102F7000022000F0BFF85C4BD3E900014FF00002E3
:102F80004FF00003FDF7AAFD0346002B0DD00021F2
:102F9000032000F0AFF8544BD3E90023144623F08C
:102FA0000045514BC3E900450FE04F4BD3E9000109
:102FB0004FF000024FF00003FDF7AEFD0346002B7B
:102FC00003D00121032000F095F8454B93ED007BE1
:102FD000B0EE470AF0EE670A00F0EAF8B0EE407A89
:102FE000F0EE607A3E4B83ED007B3E4B93ED007B31
:102FF000B0EE470AF0EE670A00F0DAF8B0EE407A79
:10300000F0EE607A374B83ED007B374B93ED007B1E
:10301000B0EE470AF0EE670A00F0CAF8B0EE407A68
:10302000F0EE607A304B83ED007B00F0E9F82C4B3A
:1030300093ED007BB0EE470AF0EE670AFFF780FDE4
:10304000B0EE407AF0EE607A254B83ED007B254BA5
:1030500093ED007BB0EE470AF0EE670AFFF770FDD4
:10306000B0EE407AF0EE607A1E4B83ED007B1E4B93
:1030700093ED007BB0EE470AF0EE670AFFF760FDC4
:10308000B0EE407AF0EE607A174B83ED007B144B84
:10309000D3E9002315490C6810461946FDF784FD55
:1030A0000346E3630F4BD3E9002310490C68104635
:1030B0001946FDF779FD034623640B4BD3E9002342
:1030C0000B490C6810461946FDF76EFD0346636315
:1030D00000BF4837BD46BDE8B08F00BF00000840C4
:1030E000D00F0020D80F0020E00F0020EC030020BC
:1030F0007C04002080B582B000AF786039607B68C6
:10310000012B15D13B68012B09D101224FF400415D
:10311000224801F0FDF9224B01221A7008E000223A
:103120004FF400411D4801F0F3F91D4B00221A70C5
:103130007B68022B15D13B68012B09D101224FF48A
:103140008041164801F0E4F9164B01221A7008E09C
:1031500000224FF48041114801F0DAF9114B0022AE
:103160001A707B68032B15D13B68012B09D1012212
:103170004FF40051094801F0CBF90B4B01221A70B2
:1031800008E000224FF40051044801F0C1F9064B59
:1031900000221A7000BF0837BD4680BD00100240F3
:1031A000AB000020AC000020AD00002000000000BB
:1031B00080B582B000AF87ED000B0EA3D3E90023EA
:1031C000D7E90001FDF742FB02460B4610461946BF
:1031D0004FF00002064BFDF70FFA02460B4643EC98
:1031E000172BB0EE470AF0EE670A0837BD4680BDE0
:1031F00000004E408A42305B9F20D83F0000000014
:1032000080B500AF1A4914A3D3E90023C1E9002314
:10321000174913A3D3E90023C1E90223144912A3D8
:10322000D3E90023C1E90423124BD3E90023104959
:10323000C1E90823104BD3E900230D49C1E90A2352
:103240000E4BD3E900230A49C1E90C23084800F0DA
:1032500017F800BF80BD00BF333333333333D33F60
:103260009A9999999999C93F7B14AE47E17A743F2D
:1032700070050020D00F0020D80F0020E00F0020A4
:1032800080B483B000AF78607B68D3E90023134932
:10329000C1E900237B68D3E902231149C1E9002376
:1032A0007B68D3E904230F49C1E900237B68D3E994
:1032B00008230D49C1E900237B68D3E90A230B49A0
:1032C000C1E900237B68D3E90C230949C1E9002344
:1032D00000BF0C37BD465DF8047B7047E80F002047
:1032E000F00F0020F80F0020001000200810002030
:1032F0001010002080B582B000AF00237B60124B1D
:103300005B6C114A43F4804353640F4B5B6C03F4D2
:1033100080437B607B6800233B600B4B1B6C0A4A3D
:1033200043F080531364084B1B6C03F080533B60E5
:103330003B6800220F216FF0010000F091FE00BFFA
:103340000837BD4680BD00BF0038024080B58AB056
:1033500000AF786007F1140300221A605A609A6087
:10336000DA601A617B681B68284A93424AD10023BD
:103370003B61274B1B6C264A43F400431364244BE8
:103380001B6C03F400433B613B690023FB60204B53
:103390001B6B1F4A43F0040313631D4B1B6B03F0AD
:1033A0000403FB60FB680023BB60194B1B6B184ACE
:1033B00043F002031363164B1B6B03F00203BB6065
:1033C000BB684FF440637B610223BB610023FB6158
:1033D00003233B6206237B6207F1140319460D4861
:1033E00000F0FAFE20237B610223BB610023FB6116
:1033F00003233B6206237B6207F114031946064848
:1034000000F0EAFE00BF2837BD4680BD003C00400A
:1034100000380240000802400004024080B58EB02F
:1034200000AF786007F1240300221A605A609A60A6
:10343000DA601A617B681B68504A934235D10023D9
:103440003B624F4B5B6C4E4A43F0010353644C4B61
:103450005B6C03F001033B623B6A0023FB61484B5A
:103460001B6B474A43F010031363454B1B6B03F080
:103470001003FB61FB694FF420637B620223BB6294
:103480000023FB6200233B6301237B6307F12403DA
:1034900019463C4800F0A0FE00220F21192000F040
:1034A000DFFD192000F0F8FD63E07B681B68364AF9
:1034B00093422CD10023BB61314B1B6C304A43F04B
:1034C000020313642E4B1B6C03F00203BB61BB6948
:1034D00000237B612A4B1B6B294A43F001031363D2
:1034E000274B1B6B03F001037B617B69C0237B626D
:1034F0000223BB620023FB6200233B6302237B6346
:1035000007F124031946214800F066FE31E07B688C
:103510001B681F4A93422CD100233B61184B1B6C44
:10352000174A43F004031364154B1B6C03F00403A8
:103530003B613B690023FB60114B1B6B104A43F05E
:10354000080313630E4B1B6B03F00803FB60FB685F
:103550004FF440537B620223BB620023FB620023D3
:103560003B6302237B6307F124031946094800F0FB
:1035700033FE00BF3837BD4680BD00BF00000140AC
:1035800000380240001002400004004000000240E9
:1035900000080040000C024080B58CB000AF78609D
:1035A00007F11C0300221A605A609A60DA601A61FF
:1035B0007B681B68314A93420ED10023BB61304BBC
:1035C0001B6C2F4A43F0080313642D4B1B6C03F054
:1035D0000803BB61BB694CE07B681B68294A9342C6
:1035E00034D100237B61264B5B6C254A43F00203F8
:1035F0005364234B5B6C03F002037B617B69002304
:103600003B611F4B1B6B1E4A43F0040313631C4BAF
:103610001B6B03F004033B613B694023FB61022306
:103620003B6200237B620023BB620323FB6207F142
:103630001C031946144800F0CFFD002205212E205E
:1036400000F00EFD2E2000F027FD12E07B681B68C5
:103650000E4A93420DD10023FB60094B5B6C084A74
:1036600043F480335364064B5B6C03F48033FB609C
:10367000FB6800BF3037BD4680BD00BF000C004076
:1036800000380240000401400008024000400140B0
:1036900080B58AB000AF786007F1140300221A6089
:1036A0005A609A60DA601A617B681B68244A934208
:1036B0001ED100233B61234B1B6B224A43F00103C5
:1036C0001363204B1B6B03F001033B613B690C232D
:1036D0007B610223BB610023FB6100233B62022369
:1036E0007B6207F114031946174800F075FD22E0CC
:1036F0007B681B68154A93421DD10023FB60114B68
:103700001B6B104A43F0100313630E4B1B6B03F04B
:103710001003FB60FB6820237B610223BB61002355
:10372000FB6100233B6203237B6207F1140319460C
:10373000074800F051FD00BF2837BD4680BD00BFDF
:10374000000C0040003802400000024000400140F0
:103750000010024080B58CB000AF786007F11C0308
:1037600000221A605A609A60DA601A617B681B68EE
:103770003B4A934235D10023BB613A4B5B6C394ADB
:1037800043F010035364374B5B6C03F01003BB61D1
:10379000BB6900237B61334B1B6B324A43F001034F
:1037A0001363304B1B6B03F001037B617B694FF4A8
:1037B000C063FB6102233B6200237B620323BB6285
:1037C0000723FB6207F11C031946274800F004FD9C
:1037D00000220521252000F043FC252000F05CFCA0
:1037E00039E07B681B68214A934234D100233B6156
:1037F0001C4B1B6C1B4A43F480231364194B1B6C3A
:1038000003F480233B613B690023FB60154B1B6B7A
:10381000144A43F002031363124B1B6B03F00203C1
:10382000FB60FB684FF44063FB6102233B620023B3
:103830007B620323BB620723FB6207F11C0319466B
:103840000B4800F0C9FC00220521272000F008FCED
:10385000272000F021FC00BF3037BD4680BD00BFEF
:1038600000100140003802400000024000480040C3
:103870000004024080B58CB000AF78600023BB62CA
:1038800000237B620023BB602E4B5B6C2D4A43F40C
:10389000003353642B4B5B6C03F40033BB60BB6899
:1038A00007F10C0207F110031146184601F0A2FAC5
:1038B00001F08CFAB862BB6A234AA2FB03239B0C7B
:1038C000013B7B62214B224A1A60204B40F2E732D7
:1038D000DA601E4A7B6A53601C4B00221A611B4B44
:1038E00000229A60194B00229A61184801F0CAFD23
:1038F000034687F82F3097F82F30002B1BD1134841
:1039000001F010FE034687F82F3097F82F30002B78
:1039100011D1192000F0C0FB7B680F2B08D80022C2
:103920007968192000F09CFB0A4A7B68136002E06A
:10393000012387F82F3097F82F3018463037BD46CF
:1039400080BD00BF0038024083DE1B4318100020FA
:1039500000440140BC00002080B400AFFEE780B40A
:1039600000AFFEE780B400AFFEE780B400AFFEE733
:1039700080B400AFFEE780B400AF00BFBD465DF885
:10398000047B704780B500AF034802F013FA034888
:1039900002F010FA00BF80BD1403002018100020B0
:1039A00080B582B000AFF91D00230122084803F062
:1039B0002AFBFB79184600F04BF9064800F09AF90B
:1039C000034803F0B7FB00BF0837BD4680BD00BF0A
:1039D000C40400207410002080B582B000AF002322
:1039E0007B70394600230122104803F00CFB104B7A
:1039F000186839460023002204F070FC0D4B1B6848
:103A0000184605F0F5FE78607B68002B07D00A4B5E
:103A10004FF080521A60BFF34F8FBFF36F8F034890
:103A200003F088FB00BF0837BD4680BD0C050020B1
:103A3000680500205805002004ED00E080B500AFC7
:103A4000024802F0B7F900BF80BD00BF3404002077
:103A500080B483B000AF0346FB710F4B1B680E4A66
:103A600043F0807313600D4B1B680C4A43F0010355
:103A7000136000BF4FF060431B6803F00103002B8D
:103A8000F8D04FF06042FB79136000BF0C37BD46A1
:103A90005DF8047B704700BFFCED00E0000E00E025
:103AA00080B400AF01231846BD465DF8047B704723
:103AB00080B582B000AF7860396008F0C5FB03467E
:103AC00016221A604FF0FF3318460837BD4680BDF6
:103AD00080B582B000AF78604FF0FF317868FFF7B3
:103AE000E7FFFEE780B586B000AFF860B9607A60A6
:103AF00000237B610AE0AFF300800146BB685A1CDB
:103B0000BA60CAB21A707B6901337B617A697B68DB
:103B10009A42F0DB7B6818461837BD4680BD80B5F9
:103B200086B000AFF860B9607A6000237B6109E07D
:103B3000BB685A1CBA601B781846FFF789FF7B697F
:103B400001337B617A697B689A42F1DB7B681846B6
:103B50001837BD4680BD80B483B000AF78604FF0A9
:103B6000FF3318460C37BD465DF8047B704780B4C0
:103B700083B000AF786039603B684FF400525A6000
:103B8000002318460C37BD465DF8047B704780B4AF
:103B900083B000AF7860012318460C37BD465DF84E
:103BA000047B704780B485B000AFF860B9607A607C
:103BB000002318461437BD465DF8047B70470000AB
:103BC00080B586B000AF7860144A154BD31A7B617C
:103BD0007B693B61134B1B68002B02D1114B124ACE
:103BE0001A60104B1A687B6813443A699A4207D2EC
:103BF00008F02AFB03460C221A604FF0FF3309E05D
:103C0000084B1B68FB60074B1A687B681344054A26
:103C10001360FB6818461837BD4680BD00000220BF
:103C20000004000060100020385B002080B400AF6A
:103C3000064BD3F88830054A43F47003C2F8883045
:103C400000BFBD465DF8047B704700BF00ED00E09B
:103C500080B483B000AF0346FB71FB79552B06D1CE
:103C6000144B1B78002B02D1134B01221A70124BFC
:103C70001B78002B17D00F4B1B780A2B09D10D4B4B
:103C80001B7819460D4AFB7953540D4B01221A70CB
:103C900009E0084B1B785A1CD1B2064A117019462C
:103CA000064AFB79535400BF0C37BD465DF8047BD0
:103CB000704700BF6F1000207110002064100020BA
:103CC0007010002080B485B000AF03460A46FB7137
:103CD0001346BB71FB791B021AB2BB791BB21343AB
:103CE000FB81B7F90E3018461437BD465DF8047BEA
:103CF0007047000080B582B000AF7860404B1B7801
:103D0000002B78D03F4B5B78532B6BD13D4BDB784E
:103D10003C4A927811461846FFF7D4FF03461846EE
:103D2000FCF700FC4FF00002374BFCF78FFD02461A
:103D30000B46104619464FF00002344BFCF75CFC72
:103D400002460B4610461946FCF706FF03461AB218
:103D50007B681A802B4B5B792A4A127911461846E8
:103D6000FFF7B0FF03461846FCF7DCFB4FF00002FC
:103D7000254BFCF76BFD02460B46104619464FF0EB
:103D80000002224BFCF738FC02460B46104619464F
:103D9000FCF7E2FE03461AB27B685A80194BDB79C6
:103DA000184A927911461846FFF78CFF03461846C9
:103DB000FCF7B8FB4FF00002134BFCF747FD02463F
:103DC0000B46104619464FF00002104BFCF714FC4E
:103DD00002460B4610461946FCF7BEFE03461AB2D1
:103DE0007B689A800A4B00221A700A4B00221A70D4
:103DF000034B00221A7000BF0837BD4680BD00BFCC
:103E000070100020641000200000E0400080664038
:103E1000711000206F100020DFF834D0FFF706FF8C
:103E20000C480D490D4A002302E0D458C450043315
:103E3000C4188C42F9D30A4A0A4C002301E01360EB
:103E40000432A242FBD308F005FAFDF781F970476E
:103E500000000220000000209002002060160108EF
:103E600090020020345B0020FEE7000080B500AF28
:103E70000E4B1B680D4A43F4007313600B4B1B6819
:103E80000A4A43F480631360084B1B68074A43F4F3
:103E900080731360032000F0D8F80F20FFF7EAFCCE
:103EA000FFF728FA0023184680BD00BF003C0240FF
:103EB00080B400AF064B1B781A46064B1B681344B0
:103EC000044A136000BFBD465DF8047B704700BF25
:103ED000C00000207C10002080B400AF034B1B68A2
:103EE0001846BD465DF8047B704700BF7C1000207B
:103EF00080B485B000AF78607B6803F00703FB6097
:103F00000C4BDB68BB60BA684FF6FF031340BB6025
:103F1000FB681A02BB68134343F0BF6343F40033EA
:103F2000BB60044ABB68D36000BF1437BD465DF870
:103F3000047B704700ED00E080B400AF044BDB6809
:103F40001B0A03F007031846BD465DF8047B704763
:103F500000ED00E080B483B000AF0346FB7197F939
:103F60000730002B0BDBFB7903F01F02074997F9A1
:103F700007305B09012000FA02F241F8232000BF5C
:103F80000C37BD465DF8047B704700BF00E100E0E0
:103F900080B483B000AF03463960FB7197F90730F6
:103FA000002B0ADB3B68DAB20C4997F907301201A3
:103FB000D2B20B4483F800230AE03B68DAB2084926
:103FC000FB7903F00F03043B1201D2B20B441A76C3
:103FD00000BF0C37BD465DF8047B704700E100E090
:103FE00000ED00E080B489B000AFF860B9607A609D
:103FF000FB6803F00703FB61FB69C3F10703042BB4
:1040000028BF0423BB61FB690433062B02D9FB697B
:10401000033B00E000237B614FF0FF32BB6902FAF3
:1040200003F3DA43BB681A407B699A404FF0FF31D3
:104030007B6901FA03F3D9437B680B4013431846AD
:104040002437BD465DF8047B704780B582B000AF71
:1040500078607868FFF74CFF00BF0837BD4680BD29
:1040600080B586B000AF0346B9607A60FB73002369
:104070007B61FFF761FF78617A68B9687869FFF75B
:10408000B1FF024697F90F3011461846FFF780FF3F
:1040900000BF1837BD4680BD80B582B000AF034673
:1040A000FB7197F907301846FFF754FF00BF083738
:1040B000BD4680BD80B584B000AF78607B689B6DE5
:1040C000FB60FFF709FFB8607B6893F83530DBB21F
:1040D000022B08D07B6880225A657B68002283F817
:1040E0003420012352E07B681B681A687B681B68D8
:1040F00022F016021A607B681B685A697B681B688D
:1041000022F080025A617B681B6C002B03D17B6814
:104110009B6C002B07D07B681B681A687B681B6848
:1041200022F008021A607B681B681A687B681B68AB
:1041300022F001021A6013E0FFF7CEFE0246BB68D0
:10414000D31A052B0CD97B6820225A657B68032281
:1041500083F835207B68002283F83420032315E0A0
:104160007B681B681B6803F00103002BE4D17B68AC
:10417000DB6D3F229A40FB689A607B68012283F8DE
:1041800035207B68002283F834200023184610373E
:10419000BD4680BD80B483B000AF78607B6893F883
:1041A0003530DBB2022B04D07B6880225A650123B4
:1041B0000CE07B68052283F835207B681B681A6851
:1041C0007B681B6822F001021A60002318460C3736
:1041D000BD465DF8047B704780B489B000AF78605D
:1041E000396000237B6100233B610023BB61002316
:1041F000FB616BE10122FB6902FA03F37B613B681F
:104200001B687A6913403B613A697B699A4240F0C6
:104210005A813B685B6803F00303012B05D03B68C0
:104220005B6803F00303022B30D17B689B68BB61A2
:10423000FB695B00032202FA03F3DB43BA69134014
:10424000BB613B68DA68FB695B0002FA03F3BA6999
:104250001343BB617B68BA699A607B685B68BB612A
:104260000122FB6902FA03F3DB43BA691340BB6125
:104270003B685B681B0903F00102FB6902FA03F368
:10428000BA691343BB617B68BA695A603B685B6873
:1042900003F00303032B17D07B68DB68BB61FB696A
:1042A0005B00032202FA03F3DB43BA691340BB61EC
:1042B0003B689A68FB695B0002FA03F3BA6913432F
:1042C000BB617B68BA69DA603B685B6803F0030333
:1042D000022B23D1FB69DA087B68083253F82230BD
:1042E000BB61FB6903F007039B000F2202FA03F393
:1042F000DB43BA691340BB613B681A69FB6903F091
:1043000007039B0002FA03F3BA691343BB61FB691D
:10431000DA087B680832B96943F822107B681B68A9
:10432000BB61FB695B00032202FA03F3DB43BA695A
:104330001340BB613B685B6803F00302FB695B00F1
:1043400002FA03F3BA691343BB617B68BA691A6066
:104350003B685B6803F44033002B00F0B48000231B
:10436000FB60604B5B6C5F4A43F4804353645D4B7E
:104370005B6C03F48043FB60FB685B4AFB699B0852
:10438000023352F82330BB61FB6903F003039B0047
:104390000F2202FA03F3DB43BA691340BB617B6867
:1043A000524A93422BD07B68514A934225D07B6876
:1043B000504A93421FD07B684F4A934219D07B6882
:1043C0004E4A934213D07B684D4A93420DD07B688E
:1043D0004C4A934207D07B684B4A934201D1072352
:1043E0000EE008230CE006230AE0052308E004237E
:1043F00006E0032304E0022302E0012300E000239F
:10440000FA6902F0030292009340BA691343BB6158
:104410003549FB699B080233BA6941F823203B4BBD
:104420009B68BB613B69DB43BA691340BB613B6876
:104430005B6803F48013002B03D0BA693B69134314
:10444000BB61324ABB699360304BDB68BB613B693F
:10445000DB43BA691340BB613B685B6803F400133C
:10446000002B03D0BA693B691343BB61274ABB6980
:10447000D360264B5B68BB613B69DB43BA69134081
:10448000BB613B685B6803F40033002B03D0BA695F
:104490003B691343BB611D4ABB6953601B4B1B68DF
:1044A000BB613B69DB43BA691340BB613B685B6836
:1044B00003F48033002B03D0BA693B691343BB611B
:1044C000124ABB691360FB690133FB61FB690F2B67
:1044D0007FF690AE00BF00BF2437BD465DF8047B79
:1044E000704700BF00380240003801400000024021
:1044F0000004024000080240000C0240001002408C
:104500000014024000180240001C0240003C014020
:1045100080B483B000AF78600B467B8013467B701D
:104520007B78002B03D07A887B689A6103E07B88D4
:104530001A047B689A6100BF0C37BD465DF8047BA6
:104540007047000080B586B000AF78607B68002BB4
:1045500001D1012367E27B681B6803F00103002B94
:1045600075D0884B9B6803F00C03042B0CD0854B53
:104570009B6803F00C03082B12D1824B5B6803F499
:104580008003B3F5800F0BD17E4B1B6803F400331F
:10459000002B5BD07B685B68002B57D1012342E284
:1045A0007B685B68B3F5803F06D1764B1B68754A24
:1045B00043F4803313601DE07B685B68B3F5A02F84
:1045C0000CD1704B1B686F4A43F4802313606D4B12
:1045D0001B686C4A43F4803313600BE0694B1B6823
:1045E000684A23F480331360664B1B68654A23F4E2
:1045F000802313607B685B68002B13D0FFF76CFC93
:10460000386108E0FFF768FC02463B69D31A642B67
:1046100001D9032307E25B4B1B6803F40033002B33
:10462000F0D014E0FFF758FC386108E0FFF754FCC5
:1046300002463B69D31A642B01D90323F3E1514BA2
:104640001B6803F40033002BF0D100E000BF7B684F
:104650001B6803F00203002B63D04A4B9B6803F0F6
:104660000C03002B0BD0474B9B6803F00C03082B6B
:104670001CD1444B5B6803F48003002B16D1414BE3
:104680001B6803F00203002B05D07B68DB68012B5D
:1046900001D00123C7E13B4B1B6823F0F8027B6884
:1046A0001B69DB00374913430B603AE07B68DB682A
:1046B000002B20D0344B01221A60FFF70DFC38612B
:1046C00008E0FFF709FC02463B69D31A022B01D927
:1046D0000323A8E12B4B1B6803F00203002BF0D04F
:1046E000284B1B6823F0F8027B681B69DB00254917
:1046F00013430B6015E0244B00221A60FFF7ECFB1C
:10470000386108E0FFF7E8FB02463B69D31A022B49
:1047100001D9032387E11B4B1B6803F00203002B25
:10472000F0D17B681B6803F00803002B36D07B6850
:104730005B69002B16D0154B01221A60FFF7CCFBEA
:10474000386108E0FFF7C8FB02463B69D31A022B29
:1047500001D9032367E10B4B5B6F03F00203002BCE
:10476000F0D01BE0094B00221A60FFF7B5FB38615F
:104770000EE0FFF7B1FB02463B69D31A022B07D9C3
:10478000032350E10038024000004742800E4742B8
:10479000884B5B6F03F00203002BEAD17B681B6838
:1047A00003F00403002B00F097800023FB75814B7E
:1047B0001B6C03F08053002B0FD10023BB607D4B9B
:1047C0001B6C7C4A43F0805313647A4B1B6C03F0E0
:1047D0008053BB60BB680123FB75774B1B6803F4F8
:1047E0008073002B18D1744B1B68734A43F4807399
:1047F0001360FFF771FB386108E0FFF76DFB0246BD
:104800003B69D31A022B01D903230CE16A4B1B68C5
:1048100003F48073002BF0D07B689B68012B06D1DA
:10482000644B1B6F634A43F0010313671CE07B6812
:104830009B68052B0CD15F4B1B6F5E4A43F0040352
:1048400013675C4B1B6F5B4A43F0010313670BE07C
:10485000584B1B6F574A23F001031367554B1B6FCF
:10486000544A23F0040313677B689B68002B15D020
:10487000FFF732FB38610AE0FFF72EFB02463B6987
:10488000D31A41F28832934201D90323CBE0494B3A
:104890001B6F03F00203002BEED014E0FFF71CFBAC
:1048A00038610AE0FFF718FB02463B69D31A41F270
:1048B0008832934201D90323B5E03E4B1B6F03F0CE
:1048C0000203002BEED1FB7D012B05D1394B1B6C74
:1048D000384A23F0805313647B689B69002B00F0F7
:1048E000A180344B9B6803F00C03082B5CD07B68E1
:1048F0009B69022B41D1314B00221A60FFF7ECFA81
:10490000386108E0FFF7E8FA02463B69D31A022B48
:1049100001D9032387E0274B1B6803F00073002BAA
:10492000F0D17B68DA697B681B6A1A437B685B6A33
:104930009B011A437B689B6A5B08013B1B041A437B
:104940007B68DB6A1B061B4913434B601B4B012230
:104950001A60FFF7C1FA386108E0FFF7BDFA0246B6
:104960003B69D31A022B01D903235CE0114B1B686E
:1049700003F00073002BF0D054E0104B00221A60BB
:10498000FFF7AAFA386108E0FFF7A6FA02463B698A
:10499000D31A022B01D9032345E0064B1B6803F011
:1049A0000073002BF0D13DE07B689B69012B07D1A0
:1049B000012338E0003802400070004060004742A8
:1049C0001B4B5B68FB607B689B69012B28D0FB68F5
:1049D00003F480027B68DB699A4221D1FB6803F013
:1049E0003F027B681B6A9A421AD1FA6847F6C07385
:1049F00013407A68526A9201934211D1FB6803F422
:104A000040327B689B6A5B08013B1B049A4207D1DA
:104A1000FB6803F070627B68DB6A1B069A4201D078
:104A2000012300E0002318461837BD4680BD00BFB3
:104A30000038024080B584B000AF786039607B6890
:104A4000002B01D10123CCE0684B1B6803F0070366
:104A50003A689A420CD9654B3A68D2B21A70634BE5
:104A60001B6803F007033A689A4201D00123B8E0BB
:104A70007B681B6803F00203002B20D07B681B6857
:104A800003F00403002B05D0594B9B68584A43F4AC
:104A9000E05393607B681B6803F00803002B05D08C
:104AA000534B9B68524A43F460439360504B9B685E
:104AB00023F0F0027B689B684D4913438B607B6851
:104AC0001B6803F00103002B44D07B685B68012B5B
:104AD00007D1474B1B6803F40033002B19D1012386
:104AE0007FE07B685B68022B03D07B685B68032BED
:104AF00007D13F4B1B6803F00073002B09D1012342
:104B00006FE03B4B1B6803F00203002B01D1012334
:104B100067E0374B9B6823F003027B685B6834498E
:104B200013438B60FFF7D8F9F8600AE0FFF7D4F978
:104B30000246FB68D31A41F28832934201D903231B
:104B40004FE02B4B9B6803F00C027B685B689B007B
:104B50009A42EBD1254B1B6803F007033A689A424F
:104B60000CD2224B3A68D2B21A70204B1B6803F069
:104B700007033A689A4201D0012332E07B681B6840
:104B800003F00403002B08D0194B9B6823F4E05278
:104B90007B68DB68164913438B607B681B6803F0F6
:104BA0000803002B09D0124B9B6823F460427B68FA
:104BB0001B69DB000E4913438B6000F021F80246AD
:104BC0000B4B9B681B0903F00F030A49CB5C22FACD
:104BD00003F3094A1360094B1B681846FEF74AFEA7
:104BE000002318461037BD4680BD00BF003C024080
:104BF00000380240F80F0108B8000020BC00002077
:104C00002DE9B04F90B000AF00237B630023FB631E
:104C100000233B630023BB63594B9B6803F00C03E9
:104C2000082B0DD0082B00F2A180002B02D0042B02
:104C300003D09BE0534BBB639BE0534BBB6398E0BB
:104C40004F4B5B6803F03F037B634D4B5B6803F4A2
:104C50008003002B28D04A4B5B689B0900223B62F3
:104C60007A623B6AC3F308000021474B03FB01F261
:104C7000002300FB03F31344434AA0FB0212FA6231
:104C80000A46BA62FA6A1344FB627B6B0022BB617C
:104C9000FA61D7E90623D7E90A01FBF7F5FF0246D7
:104CA0000B461346FB6353E0354B5B689B090022C0
:104CB0003B617A613B69C3F3080A4FF0000B52462F
:104CC0005B464FF000004FF00001590141EAD2610C
:104CD000500102460B46B2EB0A0863EB0B094FF09A
:104CE00000024FF000034FEA891343EA98634FEA4A
:104CF0008812B2EB080463EB09054FF000024FF095
:104D00000003EB0043EA5473E20014461D4614EB23
:104D10000A033B6045EB0B037B604FF000024FF052
:104D20000003D7E9004529468B02214643EA915307
:104D300021468A02104619467B6B0022BB60FA604E
:104D4000D7E90223FBF7A0FF02460B461346FB639D
:104D50000B4B5B681B0C03F0030301335B003B63ED
:104D6000FA6B3B6BB2FBF3F3BB6302E0054BBB6337
:104D700000BFBB6B18464037BD46BDE8B08F00BFD3
:104D8000003802400024F40040787D0180B400AF78
:104D9000034B1B681846BD465DF8047B704700BF97
:104DA000B800002080B500AFFFF7F0FF0246054BCA
:104DB0009B689B0A03F007030349CB5C22FA03F3C9
:104DC000184680BD003802400810010880B500AFC9
:104DD000FFF7DCFF0246054B9B685B0B03F0070304
:104DE0000349CB5C22FA03F3184680BD0038024029
:104DF0000810010880B483B000AF786039607B6828
:104E00000F221A60124B9B6803F003027B685A6002
:104E10000F4B9B6803F0F0027B689A600C4B9B6819
:104E200003F4E0527B68DA60094B9B68DB0803F40B
:104E3000E0527B681A61074B1B6803F007023B686E
:104E40001A6000BF0C37BD465DF8047B704700BF99
:104E500000380240003C024080B582B000AF78606C
:104E60007B68002B01D101237BE07B685B6A002B10
:104E700008D17B685B68B3F5827F09D07B6800222C
:104E8000DA6105E07B6800221A617B6800225A61C2
:104E90007B6800229A627B6893F85130DBB2002B6A
:104EA00006D17B68002283F850207868FEF74EFA1E
:104EB0007B68022283F851207B681B681A687B6834
:104EC0001B6822F040021A607B685B6803F4827200
:104ED0007B689B6803F404431A437B68DB6803F434
:104EE00000631A437B681B6903F002031A437B6863
:104EF0005B6903F001031A437B689B6903F4007349
:104F00001A437B68DB6903F038031A437B681B6A2A
:104F100003F0800342EA03017B689B6A03F40052BA
:104F20007B681B680A431A607B689B691B0C03F053
:104F300004017B685B6A03F010027B681B680A430C
:104F40005A607B681B68DA697B681B6822F4006220
:104F5000DA617B6800225A657B68012283F8512060
:104F6000002318460837BD4680BD80B58CB000AF21
:104F7000F860B9607A607B800123FB62002387F8C8
:104F80002B30FB6893F85030012B01D1022398E1BC
:104F9000FB68012283F85020FEF79EFF7862FB68D1
:104FA00093F8513087F82330FB685B68FB617B889E
:104FB0007B8397F82330012B0FD0FB69B3F5827FF9
:104FC00007D1FB689B68002B03D197F82330042B93
:104FD00003D0022387F82B306DE1BB68002B05D08E
:104FE0007B68002B02D07B88002B03D1012387F83C
:104FF0002B3060E1FB6893F85130DBB2042B03D017
:10500000FB68052283F85120FB6800225A65FB6883
:105010007A689A63FB687A88DA87FB687A889A8765
:10502000FB68BA681A63FB687A88DA86FB687A8854
:105030009A86FB6800221A64FB6800225A64FB68A7
:105040001B681B6803F04003402B07D0FB681B68FC
:105050001A68FB681B6842F040021A60FB68DB6854
:10506000B3F5006F7CD1FB685B68002B02D07B8BB3
:10507000012B6AD1FB681B6B1A88FB681B68DA601E
:10508000FB681B6B9A1CFB681A63FB68DB8E9BB288
:10509000013B9AB2FB68DA8657E0FB681B689B68A5
:1050A00003F00203022B1BD1FB68DB8E9BB2002BAB
:1050B00016D0FB6A012B13D1FB681B6B1A88FB68A7
:1050C0001B68DA60FB681B6B9A1CFB681A63FB6841
:1050D000DB8E9BB2013B9AB2FB68DA860023FB624F
:1050E000FB681B689B6803F00103012B19D1FB6867
:1050F000DB8F9BB2002B14D0FB681B68DA68FB685F
:105100009B6B92B21A80FB689B6B9A1CFB689A633C
:10511000FB68DB8F9BB2013B9AB2FB68DA87012305
:10512000FB62FEF7D9FE02467B6AD31ABA6B9A423B
:105130000BD8BB6BB3F1FF3F07D0032387F82B30AD
:10514000FB68012283F85120B5E0FB68DB8E9BB23F
:10515000002BA2D1FB68DB8F9BB2002B9DD180E09E
:10516000FB685B68002B02D07B8B012B6FD1FB6847
:105170001A6BFB681B680C3312781A70FB681B6B88
:105180005A1CFB681A63FB68DB8E9BB2013B9AB228
:10519000FB68DA865BE0FB681B689B6803F0020330
:1051A000022B1CD1FB68DB8E9BB2002B17D0FB6A55
:1051B000012B14D1FB681A6BFB681B680C33127847
:1051C0001A70FB681B6B5A1CFB681A63FB68DB8E4A
:1051D0009BB2013B9AB2FB68DA860023FB62FB6854
:1051E0001B689B6803F00103012B19D1FB68DB8F5F
:1051F0009BB2002B14D0FB681B68DA68FB689B6BC2
:10520000D2B21A70FB689B6B5A1CFB689A63FB68EE
:10521000DB8F9BB2013B9AB2FB68DA870123FB620A
:10522000FEF75AFE02467B6AD31ABA6B9A4203D83B
:10523000BB6BB3F1FF3F02D1BB6B002B07D1032344
:1052400087F82B30FB68012283F8512033E0FB689C
:10525000DB8E9BB2002B9ED1FB68DB8F9BB2002BB9
:1052600099D17A6AB96BF86800F0B8F80346002B58
:1052700006D0012387F82B30FB6820225A651AE0FC
:10528000FB689B68002B0AD100237B61FB681B68CD
:10529000DB687B61FB681B689B687B617B69FB68E3
:1052A0005B6D002B03D0012387F82B3003E0FB68F4
:1052B000012283F85120FB68002283F8502097F8E0
:1052C0002B3018463037BD4680BD000080B588B011
:1052D00000AFF860B9603B601346FB71FEF7FCFD60
:1052E0000246BB6A9B1A3A681344FB61FEF7F4FD61
:1052F000B861394B1B685B011B0DFA6902FB03F3B4
:105300007B6154E03B68B3F1FF3F50D0FEF7E4FD12
:105310000246BB69D31AFA699A4202D9FB69002B8B
:105320003DD1FB681B685A68FB681B6822F0E002ED
:105330005A60FB685B68B3F5827F11D1FB689B689C
:10534000B3F5004F04D0FB689B68B3F5806F07D1BD
:10535000FB681B681A68FB681B6822F040021A6031
:10536000FB689B6AB3F5005F0FD1FB681B681A6886
:10537000FB681B6822F400521A60FB681B681A68FD
:10538000FB681B6842F400521A60FB68012283F834
:105390005120FB68002283F85020032317E07B692B
:1053A000002B01D10023FB617B69013B7B61FB6822
:1053B0001B689A68BB681340BA689A420CBF012305
:1053C0000023DBB21A46FB799A429BD10023184690
:1053D0002037BD4680BD00BFB800002080B588B032
:1053E00002AFF860B9607A607B680093BB68012205
:1053F0000221F868FFF76AFF0346002B07D0FB681D
:105400005B6D43F02002FB685A65032332E01B4BBF
:105410001B681B4AA2FB03235B0D4FF47A7202FB4D
:1054200003F37B61FB685B68B3F5827F12D17B6815
:105430000093BB6800228021F868FFF747FF03460E
:10544000002B16D0FB685B6D43F02002FB685A65A9
:1054500003230FE07B69002B0AD07B69013B7B6152
:10546000FB681B689B6803F08003802BF2D000E090
:1054700000BF002318461837BD4680BDB800002085
:10548000819F5E1680B582B000AF78607B68002B8C
:1054900001D1012341E07B6893F83D30DBB2002B62
:1054A00006D17B68002283F83C207868FEF774F808
:1054B0007B68022283F83D207B681A687B6804338E
:1054C0001946104600F0EEFF7B68012283F8462063
:1054D0007B68012283F83E207B68012283F83F200D
:1054E0007B68012283F840207B68012283F84120F9
:1054F0007B68012283F842207B68012283F84320E5
:105500007B68012283F844207B68012283F84520D0
:105510007B68012283F83D20002318460837BD46EA
:1055200080BD000080B485B000AF78607B6893F8E0
:105530003D30DBB2012B01D001234EE07B6802221B
:1055400083F83D207B681B68DA687B681B6842F043
:105550000102DA607B681B68234A934222D07B6891
:105560001B68B3F1804F1DD07B681B681F4A9342B4
:1055700018D07B681B681E4A934213D07B681B6857
:105580001C4A93420ED07B681B681B4A934209D089
:105590007B681B68194A934204D07B681B68184AD1
:1055A000934211D17B681B689B6803F00703FB6083
:1055B000FB68062B10D07B681B681A687B681B6829
:1055C00042F001021A6007E07B681B681A687B687A
:1055D0001B6842F001021A60002318461437BD46CA
:1055E0005DF8047B704700BF0000014000040040EC
:1055F00000080040000C0040000401400040014051
:105600000018004080B582B000AF78607B68002B46
:1056100001D1012341E07B6893F83D30DBB2002BE0
:1056200006D17B68002283F83C20786800F039F8C6
:105630007B68022283F83D207B681A687B6804330C
:105640001946104600F02EFF7B68012283F84620A1
:105650007B68012283F83E207B68012283F83F208B
:105660007B68012283F840207B68012283F8412077
:105670007B68012283F842207B68012283F8432063
:105680007B68012283F844207B68012283F845204F
:105690007B68012283F83D20002318460837BD4669
:1056A00080BD80B483B000AF786000BF0C37BD46CA
:1056B0005DF8047B7047000080B584B000AF78606F
:1056C00039603B68002B09D17B6893F83E30DBB230
:1056D000012B14BF01230023DBB222E03B68042B23
:1056E00009D17B6893F83F30DBB2012B14BF012353
:1056F0000023DBB215E03B68082B09D17B6893F8E7
:105700004030DBB2012B14BF01230023DBB208E0E1
:105710007B6893F84130DBB2012B14BF01230023D7
:10572000DBB2002B01D001237CE03B68002B04D1CD
:105730007B68022283F83E2013E03B68042B04D1EF
:105740007B68022283F83F200BE03B68082B04D1E2
:105750007B68022283F8402003E07B68022283F802
:1057600041207B681B6801223968184601F0BAFAAB
:105770007B681B682D4A934204D07B681B682C4AC7
:10578000934201D1012300E00023002B07D07B6866
:105790001B685A6C7B681B6842F400425A647B6841
:1057A0001B68224A934222D07B681B68B3F1804F6A
:1057B0001DD07B681B681F4A934218D07B681B680A
:1057C0001D4A934213D07B681B681C4A93420ED03B
:1057D0007B681B68164A934209D07B681B68184A8D
:1057E000934204D07B681B68164A934211D17B68B0
:1057F0001B689B6803F00703FB60FB68062B10D057
:105800007B681B681A687B681B6842F001021A609B
:1058100007E07B681B681A687B681B6842F001021E
:105820001A60002318461037BD4680BD00000140B5
:10583000000401400004004000080040000C00404B
:10584000004001400018004080B582B000AF786091
:105850007B68002B01D1012341E07B6893F83D3048
:10586000DBB2002B06D17B68002283F83C207868ED
:1058700000F039F87B68022283F83D207B681A68C3
:105880007B6804331946104600F00CFE7B68012249
:1058900083F846207B68012283F83E207B68012242
:1058A00083F83F207B68012283F840207B68012237
:1058B00083F841207B68012283F842207B68012223
:1058C00083F843207B68012283F844207B6801220F
:1058D00083F845207B68012283F83D200023184689
:1058E0000837BD4680BD80B483B000AF786000BF8C
:1058F0000C37BD465DF8047B7047000080B584B06E
:1059000000AF786039600023FB733B68002B04D143
:105910007B6893F83E30DBB213E03B68042B04D184
:105920007B6893F83F30DBB20BE03B68082B04D177
:105930007B6893F84030DBB203E07B6893F841303A
:10594000DBB2BB733B68002B04D17B6893F8423019
:10595000DBB213E03B68042B04D17B6893F843303F
:10596000DBB20BE03B68082B04D17B6893F8443032
:10597000DBB203E07B6893F84530DBB27B73BB7B23
:10598000012B02D17B7B012B01D00123CCE03B68B2
:10599000002B04D17B68022283F83E2013E03B6891
:1059A000042B04D17B68022283F83F200BE03B6884
:1059B000082B04D17B68022283F8402003E07B6837
:1059C000022283F841203B68002B04D17B6802222D
:1059D00083F8422013E03B68042B04D17B68022249
:1059E00083F843200BE03B68082B04D17B6802223C
:1059F00083F8442003E07B68022283F845203B685B
:105A00000C2B41D801A252F823F000BF415A0008E4
:105A1000895A0008895A0008895A0008535A000810
:105A2000895A0008895A0008895A0008655A0008EE
:105A3000895A0008895A0008895A0008775A0008CC
:105A40007B681B68DA687B681B6842F00202DA60D8
:105A50001DE07B681B68DA687B681B6842F0040203
:105A6000DA6014E07B681B68DA687B681B6842F0C8
:105A70000802DA600BE07B681B68DA687B681B68E9
:105A800042F01002DA6002E00123FB7300BFFB7BEF
:105A9000002B48D17B681B6801223968184601F049
:105AA00021F97B681B68224A934222D07B681B68DD
:105AB000B3F1804F1DD07B681B681E4A934218D0FB
:105AC0007B681B681C4A934213D07B681B681B4A87
:105AD00093420ED07B681B68194A934209D07B68B9
